{
  "contractName": "PayAVisit",
  "abi": [
    {
      "inputs": [],
      "payable": false,
      "stateMutability": "nonpayable",
      "type": "constructor"
    },
    {
      "constant": true,
      "inputs": [],
      "name": "getBalanceAmount",
      "outputs": [
        {
          "internalType": "int256",
          "name": "",
          "type": "int256"
        }
      ],
      "payable": false,
      "stateMutability": "view",
      "type": "function"
    },
    {
      "constant": false,
      "inputs": [
        {
          "internalType": "int256",
          "name": "amount",
          "type": "int256"
        }
      ],
      "name": "addDepositAmount",
      "outputs": [],
      "payable": false,
      "stateMutability": "nonpayable",
      "type": "function"
    },
    {
      "constant": false,
      "inputs": [
        {
          "internalType": "int256",
          "name": "amount",
          "type": "int256"
        }
      ],
      "name": "payAmount",
      "outputs": [],
      "payable": false,
      "stateMutability": "nonpayable",
      "type": "function"
    }
  ],
  "bytecode": "0x608060405234801561001057600080fd5b506014600081905550610115806100286000396000f3fe6080604052348015600f57600080fd5b5060043610603c5760003560e01c806349c53b9214604157806358d3e10f14606c578063af6b513e146088575b600080fd5b606a60048036036020811015605557600080fd5b810190808035906020019092919050505060b3565b005b607260c5565b6040518082815260200191505060405180910390f35b60b160048036036020811015609c57600080fd5b810190808035906020019092919050505060ce565b005b80600080828254019250508190555050565b60008054905090565b8060008082825403925050819055505056fea265627a7a723158207df89c36e076c910d65d5cc0f5cb8aa7e930e3f0485266c3b3f2d0bb2ab7a68264736f6c63430005100032",
  "source": "pragma solidity ^0.5.16 ;\r\n\r\ncontract PayAVisit {\r\n    // amount returned to user\r\n    int balanceAmount;\r\n\r\n    constructor() public {\r\n        balanceAmount = 20;\r\n    }\r\n\r\n    // read operation\r\n    function getBalanceAmount() public view returns (int) {\r\n        return balanceAmount;\r\n    }\r\n\r\n    // write operation\r\n    function addDepositAmount(int amount) public {\r\n        balanceAmount += amount;\r\n    }\r\n\r\n    // write operation\r\n    function payAmount(int amount) public {\r\n        balanceAmount -= amount;\r\n    }\r\n}",
  "sourcePath": "C:\\Users\\Utilizador\\AndroidStudioProjects\\geolocator\\contracts\\PayAVisit.sol",
  "compiler": {
    "name": "solc",
    "version": "0.5.16+commit.9c3226ce.Emscripten.clang"
  },
  "schemaVersion": "3.4.3",
  "updatedAt": "2022-01-07T21:58:22.306Z",
  "networkType": "ethereum",
  "devdoc": {
    "methods": {}
  },
  "userdoc": {
    "methods": {}
  }
}